:100000000C945D000C9485000C9485000C94850084
:100010000C9485000C9485000C9485000C9485004C
:100020000C9485000C9485000C9485000C9485003C
:100030000C9485000C9485000C9485000C9485002C
:100040000C94BB020C9485000C9489020C946302FE
:100050000C9485000C9485000C9485000C9485000C
:100060000C9405030C9485000000000800020100B8
:100070000003040700000000000000000000000072
:10008000250028002B0000000000240027002A0083
:10009000040404040404040402020202020203032E
:1000A0000303030301020408102040800102040836
:1000B0001020010204081020330411241FBECFEFCA
:1000C000D8E0DEBFCDBF11E0A0E0B1E0ECEEFAE099
:1000D00002C005900D92A43AB107D9F722E0A4EA34
:1000E000B1E001C01D92A03DB207E1F710E0CDE5FF
:1000F000D0E004C02197FE010E946905CC35D107EC
:10010000C9F70E946C040C9474050C94000090E0F4
:10011000FC01EC55FF4F2491FC01E057FF4F849107
:10012000882399F090E0880F991FFC01EA57FF4F50
:10013000A591B491FC01E458FF4F859194918FB73C
:10014000F894EC91E22BEC938FBF0895FC01538D52
:10015000448D252F30E0842F90E0821B930B5417A1
:1001600010F0CF96089501970895FC01918D828D2E
:10017000981761F0828DDF01A80FB11D5D968C91FB
:10018000928D9F5F9F73928F90E008958FEF9FEF06
:100190000895FC01918D828D981731F0828DE80FC2
:1001A000F11D858D90E008958FEF9FEF0895FC017C
:1001B000918D228D892F90E0805C9F4F821B910949
:1001C0008F7399270895FC01848DDF01A80FB11D5D
:1001D000A35ABF4F2C91848D90E001968F7399277D
:1001E000848FA689B7892C93A089B1898C9180646A
:1001F0008C93938D848D981306C00288F389E02D2B
:1002000080818F7D80830895EF92FF920F931F93DB
:10021000CF93DF93EC0181E0888F9B8D8C8D9813B9
:1002200005C0E889F989808185FD24C0F62E0B8DF3
:1002300010E00F5F1F4F0F731127E02E8C8DE81217
:100240000CC00FB607FCFACFE889F989808185FFD9
:10025000F5CFCE010E94E300F1CF8B8DFE01E80FB8
:10026000F11DE35AFF4FF0820B8FEA89FB898081F1
:10027000806207C0EE89FF896083E889F9898081FF
:100280008064808381E090E0DF91CF911F910F9196
:10029000FF90EF900895CF93DF93EC01888D882332
:1002A000C9F0EA89FB89808185FD05C0A889B989E3
:1002B0008C9186FD0FC00FB607FCF5CF808185FFBE
:1002C000F2CFA889B9898C9185FFEDCFCE010E942C
:1002D000E300E7CFDF91CF91089587E292E00E949B
:1002E000D70021E0892B09F420E0822F089580E0D7
:1002F00090E0892B29F00E946D0181110C9400007F
:100300000895CF92DF92EF92FF920F931F93CF93B6
:10031000DF936C017A018B01C0E0D0E0CE15DF05E0
:1003200089F0D8016D918D01D601ED91FC9101907C
:10033000F081E02DC6010995892B11F47E0102C0E0
:100340002196ECCFC701DF91CF911F910F91FF90C4
:10035000EF90DF90CF90089590E0FC01E859FF4FB7
:100360003491FC01EC55FF4F2491FC01E057FF4F05
:10037000E491EE2309F43BC0332339F1333091F09B
:1003800038F43130A9F0323001F584B58F7D12C0D8
:10039000373091F03830A1F03430B9F480918000DA
:1003A0008F7D03C0809180008F77809380000DC087
:1003B00084B58F7784BD09C08091B0008F7703C06A
:1003C0008091B0008F7D8093B000F0E0EE0FFF1FB2
:1003D000E458FF4FA591B4918FB7F894EC91611157
:1003E00003C020952E2301C02E2B2C938FBF089580
:1003F00085ED8093BC008091BC0084FDFCCF109201
:10040000ED0108954091C701262F30E0240F311DE2
:1004100021323105DCF42091ED012430C9F4FC01D6
:1004200080E090E0861758F43091C7012191DC01FB
:10043000AB55BE4FA30FB11D2C930196F3CF809106
:10044000C701680F6093C70180E0089581E00895B7
:1004500082E0089508958FEF9FEF08958FEF9FEF4B
:1004600008958091A40190E0919581959109089556
:10047000CF93DF9300D0CDB7DEB7CB01642F498394
:100480005A830E9402024981842F5A81952F0F902E
:100490000F90DF91CF910895CF93DF931F92CDB747
:1004A000DEB7698361E0CE0101960E94020281E01D
:1004B00090E00F90DF91CF910895089580E090E053
:1004C00008950E946F051F920F920FB60F9211248C
:1004D0002F933F934F935F936F937F938F939F934C
:1004E000AF93BF93EF93FF9387E292E00E94E30004
:1004F000FF91EF91BF91AF919F918F917F916F91FC
:100500005F914F913F912F910F900FBE0F901F90D1
:1005100018951F920F920FB60F9211242F938F935D
:100520009F93EF93FF93E0913702F091380280811F
:10053000E0913D02F0913E0282FD12C090818091D7
:1005400040028F5F8F7320914102821751F0E0913A
:100550004002F0E0E95DFD4F958F8093400201C0BD
:100560008081FF91EF919F918F912F910F900FBEFE
:100570000F901F9018951F920F920FB60F92112493
:100580002F933F938F939F93AF93BF9380911802C4
:1005900090911902A0911A02B0911B02309117029A
:1005A00023E0230F2D3720F40196A11DB11D05C0B6
:1005B00026E8230F0296A11DB11D209317028093F8
:1005C000180290931902A0931A02B0931B02809113
:1005D000130290911402A0911502B0911602019697
:1005E000A11DB11D8093130290931402A0931502D4
:1005F000B0931602BF91AF919F918F913F912F9130
:100600000F900FBE0F901F9018951F920F920FB66C
:100610000F9211242F933F934F935F936F937F9388
:100620008F939F93AF93BF93EF93FF938091B90004
:10063000887F803609F49CC068F5883209F45BC075
:1006400090F4803109F454C038F4882309F4F6C0DA
:10065000883009F44DC0F6C0883109F44CC08032AE
:1006600009F45DC0EFC0803409F468C048F48033F9
:1006700009F455C0883309F0E5C08093EC01D8C077
:10068000803509F44FC0883509F45DC0883409F01D
:10069000D9C0D6C0883909F4C7C0A8F4883709F48E
:1006A00067C038F4883609F463C0803709F460C045
:1006B000C9C0883809F4B8C0803909F45FC08038EF
:1006C00009F0C0C05BC0803B09F486C038F4803AB2
:1006D00009F466C0883A09F47FC0B4C0803C09F4CC
:1006E000A7C0883C09F4A4C0883B09F48AC0AAC00A
:1006F0008091120210C090911102809110029817FF
:1007000070F5E091110281E08E0F80931102F0E00C
:10071000E051FE4F80818093BB0085EC86C08093C2
:10072000EC018EC0E091110281E08E0F80931102E6
:100730008091BB00F0E0E051FE4F80839091110268
:10074000809110026EC0E091110281E08E0F8093C3
:1007500011028091BB00F0E0E051FE4F8083809158
:10076000EF0181116DC081E08093EE0184EA61C0E8
:1007700083E08093ED011092EB01CFCF8091EB01EC
:10078000803208F051C0E091EB0181E08E0F809340
:10079000EB018091BB00F0E0E553FE4F8083BDCFBD
:1007A00085EC8093BC001092ED018091EB018032CA
:1007B00030F4E091EB01F0E0E553FE4F10826091E0
:1007C000EB0170E0E091C901F091CA018BEC91E07E
:1007D00009951092EB0136C084E08093ED011092F0
:1007E000C8011092C701E091C501F091C6010995B9
:1007F0008091C701811105C081E08093C7011092EB
:10080000A501E091C80181E08E0F8093C801F0E05E
:10081000EB55FE4F80818093BB009091C801809181
:10082000C701981708F479CF85E88093BC000AC007
:1008300085EC8093BC001092ED0104C01092EC0195
:100840000E94F801FF91EF91BF91AF919F918F911D
:100850007F916F915F914F913F912F910F900FBEBC
:100860000F901F901895E7E2F2E01382128288EE53
:1008700093E0A0E0B0E084839583A683B78324E867
:1008800031E03183208325EC30E03587248724EC68
:1008900030E03787268720EC30E0318B208B21EC4D
:1008A00030E0338B228B22EC30E0358B248B26EC2E
:1008B00030E0378B268B118E128E138E148EE4EC63
:1008C000F2E01382128284839583A683B78386E93C
:1008D00091E0918380830895789484B5826084BD8B
:1008E00084B5816084BD85B5826085BD85B5816034
:1008F00085BD80916E00816080936E0010928100B2
:10090000809181008260809381008091810081606C
:10091000809381008091800081608093800080912D
:10092000B10084608093B1008091B00081608093B9
:10093000B00080917A00846080937A0080917A0080
:10094000826080937A0080917A00816080937A003F
:1009500080917A00806880937A001092C10081E1D2
:100960000E94870080E10E9487008FE00E9487003C
:100970008EE00E948700C0E0D1E0888122960E942C
:10098000870031E0C431D307C1F761E081E10E9403
:10099000AC0161E080E10E94AC0161E08FE00E9467
:1009A000AC0161E08EE00E94AC01C0E0D1E0888142
:1009B000229661E00E94AC0181E0C431D807B9F70A
:1009C00010921C0281E080931D0282E080931E023F
:1009D00083E080931F020BEC17E0C09126020C2EDF
:1009E000000CDD0B20E0A22E21E0B22EC12CD12C78
:1009F000FE01E45EFD4F7F01F5018081F2E0AF0E64
:100A0000B11CF70120813AE02303F0011124EC0D21
:100A1000FD1DEC5EFE4F60810E94AC018FEFC81A95
:100A2000D80A9AE0C916D10439F798E7C92E91E09F
:100A3000D92EE12CF12CEC16FD0639F4F701EE0F5E
:100A4000FF1FE858FE4F60E002C061E0F6018081C0
:100A50000E94AC01FFEFEF1AFF0A32E0C30ED11C77
:100A600084E0E816F10439F7CE010196B7010E943F
:100A7000410580932602C8010197F1F70E94770192
:100A8000ACCF97FB072E16F4009407D077FD09D062
:100A90000E94550507FC05D03EF4909581959F4F27
:100AA0000895709561957F4F0895AA1BBB1B51E176
:100AB00007C0AA1FBB1FA617B70710F0A61BB70BCE
:100AC000881F991F5A95A9F780959095BC01CD0173
:100AD0000895EE0FFF1F0590F491E02D099481E039
:0C0AE00090E0F8940C947405F894FFCF9B
:100AEC000800050004000B000C000A000D000700B4
:100AFC0009000600000000000000010101010100D6
:100B0C0000010101010101010000010000010001CF
:100B1C0001010000000001010001010101000001C0
:100B2C0001000001010100010000010000010101B0
:100B3C0000010000000000010101000000010101A2
:100B4C000101010100000000000000010101000092
:100B5C000000010000010101110010000F000E0047
:100B6C000000000004018101A6004B01D700B50074
:100B7C00C900000000004C0238025E022A02310259
:040B8C002E022B0208
:00000001FF
