:100000000C945D000C9485000C9485000C94850084
:100010000C9485000C9485000C9485000C9485004C
:100020000C9485000C9485000C9485000C9485003C
:100030000C9485000C9485000C9485000C9485002C
:100040000C9442030C9485000C9410030C94EA0267
:100050000C9485000C9485000C9485000C9485000C
:100060000C948C030C948500000000080002010031
:100070000003040700000000000000000000000072
:10008000250028002B0000000000240027002A0083
:10009000040404040404040402020202020203032E
:1000A0000303030301020408102040800102040836
:1000B0001020010204081020BA0411241FBECFEF43
:1000C000D8E0DEBFCDBF11E0A0E0B1E0E0E4FBE0AE
:1000D00002C005900D92A034B107D9F722E0A0E448
:1000E000B1E001C01D92A136B207E1F710E0CDE505
:1000F000D0E004C02197FE010E949305CC35D107C2
:10010000C9F70E94F3040C949E050C94000090E043
:10011000FC01EC55FF4F2491FC01E057FF4F849107
:10012000882399F090E0880F991FFC01EA57FF4F50
:10013000A591B491FC01E458FF4F859194918FB73C
:10014000F894EC91E22BEC938FBF0895FC01538D52
:10015000448D252F30E0842F90E0821B930B5417A1
:1001600010F0CF96089501970895FC01918D828D2E
:10017000981761F0828DDF01A80FB11D5D968C91FB
:10018000928D9F5F9F73928F90E008958FEF9FEF06
:100190000895FC01918D828D981731F0828DE80FC2
:1001A000F11D858D90E008958FEF9FEF0895FC017C
:1001B000918D228D892F90E0805C9F4F821B910949
:1001C0008F7399270895FC01848DDF01A80FB11D5D
:1001D000A35ABF4F2C91848D90E001968F7399277D
:1001E000848FA689B7892C93A089B1898C9180646A
:1001F0008C93938D848D981306C00288F389E02D2B
:1002000080818F7D80830895EF92FF920F931F93DB
:10021000CF93DF93EC0181E0888F9B8D8C8D9813B9
:1002200005C0E889F989808185FD24C0F62E0B8DF3
:1002300010E00F5F1F4F0F731127E02E8C8DE81217
:100240000CC00FB607FCFACFE889F989808185FFD9
:10025000F5CFCE010E94E300F1CF8B8DFE01E80FB8
:10026000F11DE35AFF4FF0820B8FEA89FB898081F1
:10027000806207C0EE89FF896083E889F9898081FF
:100280008064808381E090E0DF91CF911F910F9196
:10029000FF90EF900895CF93DF93EC01888D882332
:1002A000C9F0EA89FB89808185FD05C0A889B989E3
:1002B0008C9186FD0FC00FB607FCF5CF808185FFBE
:1002C000F2CFA889B9898C9185FFEDCFCE010E942C
:1002D000E300E7CFDF91CF91089588EB91E00E9492
:1002E000D70021E0892B09F420E0822F089580E0D7
:1002F00090E0892B29F00E946D0181110C9400007F
:100300000895CF92DF92EF92FF920F931F93CF93B6
:10031000DF936C017A018B01C0E0D0E0CE15DF05E0
:1003200089F0D8016D918D01D601ED91FC9101907C
:10033000F081E02DC6010995892B11F47E0102C0E0
:100340002196ECCFC701DF91CF911F910F91FF90C4
:10035000EF90DF90CF90089590E0FC01E859FF4FB7
:100360003491FC01EC55FF4F2491FC01E057FF4F05
:10037000E491EE2309F43BC0332339F1333091F09B
:1003800038F43130A9F0323001F584B58F7D12C0D8
:10039000373091F03830A1F03430B9F480918000DA
:1003A0008F7D03C0809180008F77809380000DC087
:1003B00084B58F7784BD09C08091B0008F7703C06A
:1003C0008091B0008F7D8093B000F0E0EE0FFF1FB2
:1003D000E458FF4FA591B4918FB7F894EC91611157
:1003E00003C020952E2301C02E2B2C938FBF089580
:1003F0003FB7F8948091B4019091B501A091B601F6
:10040000B091B70126B5A89B05C02F3F19F0019602
:10041000A11DB11D3FBFBA2FA92F982F8827820F8A
:10042000911DA11DB11DBC01CD0143E0660F771FD9
:10043000881F991F4A95D1F7089585ED8093BC00D8
:100440008091BC0084FDFCCF1092890108954091F9
:100450006301262F30E0240F311D21323105DCF4F9
:10046000209189012430C9F4FC0180E090E08617D6
:1004700058F4309163012191DC01AF5BBE4FA30FB3
:10048000B11D2C930196F3CF80916301680F6093A7
:10049000630180E0089581E0089582E00895089561
:1004A0008FEF9FEF08958FEF9FEF089580914001A8
:1004B00090E09195819591090895CF93DF9300D0B5
:1004C000CDB7DEB7CB01642F49835A830E94270240
:1004D0004981842F5A81952F0F900F90DF91CF91F2
:1004E0000895CF93DF931F92CDB7DEB7698361E0A4
:1004F000CE0101960E94270281E090E00F90DF91EB
:10050000CF910895089580E090E008954F925F9212
:100510006F927F928F929F92AF92BF92EF92FF92D3
:100520000F931F93CF93DF9300E011E0C0E0D0E082
:100530002AE0E22EF12CF80180810E5F1F4F61E06E
:100540000E94AC012196CE01B7010E946B05FC010F
:10055000EE0FFF1FE050FF4F60E080810E94AC0172
:100560000E94F8012B013C0194E6892E912CA12CCC
:10057000B12C0E94F801DC01CB0184199509A60970
:10058000B709883E9340A105B10558F0F1E08F1AF4
:100590009108A108B10828EE420E23E0521E611C0A
:1005A000711C81149104A104B10419F7CA30D1055A
:1005B00011F6DF91CF911F910F91FF90EF90BF90B7
:1005C000AF909F908F907F906F905F904F90089525
:1005D0000E9499051F920F920FB60F9211242F932C
:1005E0003F934F935F936F937F938F939F93AF93BB
:1005F000BF93EF93FF9388EB91E00E94E300FF919C
:10060000EF91BF91AF919F918F917F916F915F918A
:100610004F913F912F910F900FBE0F901F90189503
:100620001F920F920FB60F9211242F938F939F93C7
:10063000EF93FF93E091C801F091C9018081E091AF
:10064000CE01F091CF0182FD12C090818091D10145
:100650008F5F8F732091D201821751F0E091D10109
:10066000F0E0E854FE4F958F8093D10101C0808166
:10067000FF91EF919F918F912F910F900FBE0F904F
:100680001F9018951F920F920FB60F9211242F935F
:100690003F938F939F93AF93BF938091B0019091BD
:1006A000B101A091B201B091B3013091AF0126E048
:1006B000230F2D3720F40296A11DB11D05C029E896
:1006C000230F0396A11DB11D2093AF018093B001AC
:1006D0009093B101A093B201B093B3018091B401A2
:1006E0009091B501A091B601B091B7010196A11DFD
:1006F000B11D8093B4019093B501A093B601B0935E
:10070000B701BF91AF919F918F913F912F910F9022
:100710000FBE0F901F9018951F920F920FB60F9259
:1007200011242F933F934F935F936F937F938F93F6
:100730009F93AF93BF93EF93FF938091B900887F0E
:10074000803609F49CC068F5883209F45BC090F4E7
:10075000803109F454C038F4882309F4F6C0883095
:1007600009F44DC0F6C0883109F44CC0803209F458
:100770005DC0EFC0803409F468C048F4803309F4E8
:1007800055C0883309F0E5C080938801D8C0803512
:1007900009F44FC0883509F45DC0883409F0D9C028
:1007A000D6C0883909F4C7C0A8F4883709F467C0EF
:1007B00038F4883609F463C0803709F460C0C9C0D2
:1007C000883809F4B8C0803909F45FC0803809F06E
:1007D000C0C05BC0803B09F486C038F4803A09F49D
:1007E00066C0883A09F47FC0B4C0803C09F4A7C051
:1007F000883C09F4A4C0883B09F48AC0AAC080914F
:10080000AE0110C09091AD018091AC01981770F5C8
:10081000E091AD0181E08E0F8093AD01F0E0E457EF
:10082000FE4F80818093BB0085EC86C08093880159
:100830008EC0E091AD0181E08E0F8093AD0180917B
:10084000BB00F0E0E457FE4F80839091AD018091B2
:10085000AC016EC0E091AD0181E08E0F8093AD01DF
:100860008091BB00F0E0E457FE4F808380918B01C4
:1008700081116DC081E080938A0184EA61C083E0C8
:100880008093890110928701CFCF809187018032B8
:1008900008F051C0E091870181E08E0F80938701BD
:1008A0008091BB00F0E0E959FE4F8083BDCF85EC1D
:1008B0008093BC001092890180918701803230F4CE
:1008C000E0918701F0E0E959FE4F108260918701C5
:1008D00070E0E0916501F091660187E691E009958D
:1008E0001092870136C084E08093890110926401E0
:1008F00010926301E0916101F0916201099580918C
:100900006301811105C081E0809363011092410170
:10091000E091640181E08E0F80936401F0E0EF5B71
:10092000FE4F80818093BB009091640180916301B0
:10093000981708F479CF85E88093BC000AC085EC4D
:100940008093BC001092890104C0109288010E941B
:100950001D02FF91EF91BF91AF919F918F917F9178
:100960006F915F914F913F912F910F900FBE0F901C
:100970001F901895E8EBF1E01382128288EE93E065
:10098000A0E0B0E084839583A683B78320E231E0C2
:100990003183208325EC30E03587248724EC30E058
:1009A0003787268720EC30E0318B208B21EC30E03C
:1009B000338B228B22EC30E0358B248B26EC30E01D
:1009C000378B268B118E128E138E148EE5E5F2E096
:1009D0001382128284839583A683B78382E391E096
:1009E000918380830895789484B5826084BD84B5B2
:1009F000816084BD85B5826085BD85B5816085BD1A
:100A000080916E00816080936E00109281008091D1
:100A10008100826080938100809181008160809359
:100A20008100809180008160809380008091B1007E
:100A300084608093B1008091B00081608093B000A9
:100A400080917A00846080937A0080917A0082603D
:100A500080937A0080917A008E7F80937A008091D3
:100A60007A00806880937A001092C100C4E1D1E0DE
:100A700018812296812F0E94870060E0812F0E94BA
:100A8000AC0181E0CC31D80799F7C0E0D1E0188102
:100A90002296812F0E94870060E0812F0E94AC0186
:100AA00081E0C431D80799F760E08FE00E94AC0183
:100AB00061E08EE00E94AC010E94860260E08EE060
:100AC0000E94AC0161E08FE00E94AC010E948602AE
:100AD0000E947701E9CF97FB072E16F4009407D008
:100AE00077FD09D00E947F0507FC05D03EF4909564
:100AF00081959F4F0895709561957F4F0895AA1B2A
:100B0000BB1B51E107C0AA1FBB1FA617B70710F0F8
:100B1000A61BB70B881F991F5A95A9F7809590952A
:100B2000BC01CD010895EE0FFF1F0590F491E02D5B
:100B3000099481E090E0F8940C949E05F894FFCF1E
:100B40000B000D00040006000700080005000A0065
:100B500009000C0011000F0010000E000000000042
:100B600004018101A6004B01D700B500C9000000B7
:100B7000000071025D0283024F02560253025002CE
:107800000C94343C0C94513C0C94513C0C94513CE1
:107810000C94513C0C94513C0C94513C0C94513CB4
:107820000C94513C0C94513C0C94513C0C94513CA4
:107830000C94513C0C94513C0C94513C0C94513C94
:107840000C94513C0C94513C0C94513C0C94513C84
:107850000C94513C0C94513C0C94513C0C94513C74
:107860000C94513C0C94513C11241FBECFEFD8E036
:10787000DEBFCDBF11E0A0E0B1E0EAE8FFE702C063
:1078800005900D92A230B107D9F712E0A2E0B1E065
:1078900001C01D92AD30B107E1F70E942D3D0C945F
:1078A000C33F0C94003C982F95959595959595958B
:1078B000905D8F708A307CF0282F295A8091C0000B
:1078C00085FFFCCF9093C6008091C00085FFFCCF60
:1078D0002093C6000895282F205DF0CF982F809127
:1078E000C00085FFFCCF9093C6000895EF92FF92F1
:1078F0000F931F93EE24FF2487018091C00087FD22
:1079000017C00894E11CF11C011D111D81E2E8164D
:1079100081EAF80687E0080780E0180770F3E09135
:107920000401F091050109958091C00087FFE9CF1E
:107930008091C6001F910F91FF90EF9008950E94D3
:10794000763C982F8091C00085FFFCCF9093C600B5
:1079500091362CF490330CF09053892F089597555D
:10796000892F08951F930E949F3C182F0E949F3CCF
:107970001295107F810F1F9108951F93182F882350
:1079800021F00E94763C1150E1F71F9108951F935A
:10799000182F0E94763C803249F0809103018F5F5E
:1079A000809303018530C1F01F9108958091C0003C
:1079B00085FFFCCF84E18093C6008091C00085FFE5
:1079C000FCCF1093C6008091C00085FFFCCF80E102
:1079D0008093C6001F910895E0910401F091050184
:1079E00009951F9108950E94763C803241F0809164
:1079F00003018F5F80930301853081F008958091AA
:107A0000C00085FFFCCF84E18093C6008091C00058
:107A100085FFFCCF80E18093C6000895E0910401CA
:107A2000F09105010995089548EC50E08823A1F0F4
:107A30002D9A28EE33E0FA013197F1F721503040CA
:107A4000D1F72D9828EE33E0FA013197F1F7215064
:107A50003040D1F7815061F708953F924F925F9285
:107A60006F927F928F929F92AF92BF92CF92DF924E
:107A7000EF92FF920F931F93CF93DF93000082E06A
:107A80008093C00080E18093C4001092C50088E11B
:107A90008093C10086E08093C2005098589A259A3E
:107AA00081E00E94143D24E1F22E9EE1E92E85E959
:107AB000D82E0FE0C02E10E1B12EAA24A394B1E479
:107AC0009B2EA6E58A2EF2E57F2EE0E26E2E79E46B
:107AD000572E63E5462E50E5352E0E94763C8033C6
:107AE000B1F18133B9F1803409F46FC0813409F404
:107AF00076C0823409F485C0853409F488C08035A5
:107B000031F1823521F1813511F1853509F485C0D6
:107B1000863509F48DC0843609F496C0843709F49B
:107B200003C1853709F472C1863709F466C08091B4
:107B300003018F5F80930301853079F6E0910401A2
:107B4000F091050109950E94763C803351F60E9420
:107B5000F33CC3CF0E94763C803249F78091C0004D
:107B600085FFFCCFF092C6008091C00085FFFCCF5E
:107B70009092C6008091C00085FFFCCF8092C60025
:107B80008091C00085FFFCCF7092C6008091C0003C
:107B900085FFFCCF6092C6008091C00085FFFCCFBE
:107BA0005092C6008091C00085FFFCCF4092C60075
:107BB0008091C00085FFFCCF3092C6008091C0004C
:107BC00085FFFCCFB092C60088CF0E94763C8638F5
:107BD00008F4BDCF0E94763C0E94F33C7ECF0E9409
:107BE000763C803809F49CC0813809F40BC1823896
:107BF00009F430C1883909F48FC080E00E94C73C85
:107C00006CCF84E10E94BD3C0E94F33C66CF85E0CE
:107C10000E94BD3C0E94F33C60CF0E94763C809362
:107C200006010E94763C809307010E94F33C55CFE9
:107C30000E94763C803309F411C183E00E94BD3C70
:107C400080E00E94C73C49CF0E94763C80930902A5
:107C50000E94763C8093080280910C028E7F809374
:107C60000C020E94763C853409F409C18091080217
:107C700090910902892B89F000E010E00E94763C87
:107C8000F801E85FFE4F80830F5F1F4F809108026D
:107C9000909109020817190788F30E94763C8032F8
:107CA00009F045CF80910C0280FFF5C0609106017C
:107CB00070910701660F771F7093070160930601AB
:107CC000A0910802B09109021097C9F0E8E0F1E034
:107CD0009B01AD014E0F5F1FF999FECF32BD21BD53
:107CE000819180BDFA9AF99A2F5F3F4FE417F5070B
:107CF00099F76A0F7B1F70930701609306018091CB
:107D0000C00085FFFCCFF092C6008091C00085FFC7
:107D1000FCCFB092C600E1CE83E00E94C73CDDCE2E
:107D200082E00E94C73CD9CE0E94763C8093090233
:107D30000E94763C80930802809106019091070191
:107D4000880F991F90930701809306010E94763C4B
:107D5000853409F49AC080910C028E7F80930C02C6
:107D60000E94763C803209F0B8CE8091C00085FF39
:107D7000FCCFF092C600A0910802B09109021097C2
:107D8000C1F180910C02082F0170182F1695117007
:107D9000E0910601F0910701AF014F5F5F4FBA011B
:107DA00020E030E00023B1F4112339F49491809164
:107DB000C00085FFFCCF9093C6002F5F3F4FCB01E3
:107DC0000196FA012A173B0780F4BC014F5F5F4F11
:107DD000002351F3F999FECFF2BDE1BDF89A90B5B9
:107DE0008091C00085FFFCCFE6CF709307016093C0
:107DF00006018091C00085FDE5CE8091C00085FF21
:107E0000F8CFE0CE81E00E94C73C67CE0E94763C6E
:107E1000803209F08CCE8091C00085FFFCCFF092BB
:107E2000C6008091C00085FFFCCFE092C600809123
:107E3000C00085FFFCCFD092C6008091C00085FFB6
:107E4000FCCFC092C6008091C00085FFFCCFB092ED
:107E5000C60043CE80E10E94C73C3FCE0E94763CE4
:107E60000E94763C182F0E94763C112309F483C0AF
:107E7000113009F484C08FE00E94C73C2ECE80915F
:107E80000C02816080930C02F1CE80910C02816023
:107E900080930C0265CF809107018823880F880B9F
:107EA0008A2180930B028091060190910701880F2F
:107EB000991F90930701809306018091080280FF2B
:107EC00009C08091080290910902019690930902DD
:107ED00080930802F894F999FECF1127E0910601EA
:107EE000F0910701C8E0D1E0809108029091090269
:107EF000103091F40091570001700130D9F303E084
:107F000000935700E8950091570001700130D9F3B4
:107F100001E100935700E8950990199000915700EE
:107F200001700130D9F301E000935700E8951395F3
:107F3000103498F011270091570001700130D9F3E7
:107F400005E000935700E89500915700017001305B
:107F5000D9F301E100935700E8953296029709F0B2
:107F6000C7CF103011F00296E5CF11248091C000E8
:107F700085FFC5CEC8CE8EE10E94C73CAECD85E957
:0A7F80000E94C73CAACDF894FFCF81
:027F8A00800075
:040000030000780081
:00000001FF
