:100000000C9458000C9480000C9480000C94800098
:100010000C9480000C9480000C9480000C94800060
:100020000C9480000C9480000C9480000C94800050
:100030000C9480000C9480000C9480000C94800040
:100040000C94AA040C9480000C9478040C94520430
:100050000C9480000C9480000C9480000C94800020
:100060000C94F4040C94800000000000250028008B
:100070002B00040404040404040402020202020229
:10008000030303030303010204081020408001025C
:1000900004081020010204081020000000080002DB
:1000A0000100000304070000000000000000220619
:1000B00011241FBECFEFD8E0DEBFCDBF11E0A0E01E
:1000C000B1E0E2E2F1E102C005900D92AC32B1077D
:1000D000D9F722E0ACE2B1E001C01D92AD3BB2071E
:1000E000E1F710E0C8E5D0E004C02197FE010E94CE
:1000F0008408C735D107C9F70E94AF060C948F0852
:100100000C94000090E0FC01E656FF4F2491FC01A6
:10011000EA57FF4F3491FC01EE58FF4FE491EE2374
:10012000B1F1222339F1233091F038F42130A9F0D4
:10013000223001F584B58F7D12C0273091F0283030
:10014000A1F02430B9F4809180008F7D03C08091AC
:1001500080008F77809380000DC084B58F7784BD39
:1001600009C08091B0008F7703C08091B0008F7D6F
:100170008093B000F0E0EE0FFF1FE859FF4FA5910C
:10018000B4918FB7F894EC913E2B3C938FBF0895B8
:10019000CF92DF92EF92FF920F931F93CF93DF9353
:1001A0006C017A018B01C0E0D0E0CE15DF0589F04B
:1001B000D8016D918D01D601ED91FC910190F081F6
:1001C000E02DC6010995892B11F47E0102C021960C
:1001D000ECCFC701DF91CF911F910F91FF90EF906E
:1001E000DF90CF900895FC01538D448D252F30E092
:1001F000842F90E0821B930B541710F0CF96089534
:1002000001970895FC01918D828D981761F0828D80
:10021000DF01A80FB11D5D968C91928D9F5F9F733A
:10022000928F90E008958FEF9FEF0895FC01918DDC
:10023000828D981731F0828DE80FF11D858D90E049
:1002400008958FEF9FEF0895FC01918D228D892FE6
:1002500090E0805C9F4F821B91098F7399270895CE
:1002600085EE91E00E94240121E0892B09F420E031
:10027000822F0895FC01848DDF01A80FB11DA35AC0
:10028000BF4F2C91848D90E001968F739927848FB6
:10029000A689B7892C93A089B1898C9180648C93AD
:1002A000938D848D981306C00288F389E02D808198
:1002B0008F7D80830895EF92FF920F931F93CF93CA
:1002C000DF93EC0181E0888F9B8D8C8D981305C0A6
:1002D000E889F989808185FD24C0F62E0B8D10E018
:1002E0000F5F1F4F0F731127E02E8C8DE8120CC08B
:1002F0000FB607FCFACFE889F989808185FFF5CF31
:10030000CE010E943A01F1CF8B8DFE01E80FF11D65
:10031000E35AFF4FF0820B8FEA89FB89808180626C
:1003200007C0EE89FF896083E889F989808180644C
:10033000808381E090E0DF91CF911F910F91FF903A
:10034000EF900895CF93DF93EC01888D8823C9F057
:10035000EA89FB89808185FD05C0A889B9898C91CE
:1003600086FD0FC00FB607FCF5CF808185FFF2CF69
:10037000A889B9898C9185FFEDCFCE010E943A0101
:10038000E7CFDF91CF91089580E090E0892B29F0AD
:100390000E94300181110C940000089585ED809336
:1003A000BC008091BC0084FDFCCF1092E001089558
:1003B00040919001262F30E0240F311D213231056C
:1003C000DCF42091E0012430C9F4FC0180E090E0ED
:1003D000861758F4309190012191DC01A259BE4F4B
:1003E000A30FB11D2C930196F3CF80919001680F5C
:1003F0006093900180E0089581E0089582E008957F
:100400000895E091E4018091E301E81730F4F0E011
:10041000E25BFE4F808190E008958FEF9FEF08959B
:100420009091E4018091E301981750F4E92FF0E0F6
:10043000E25BFE4F208130E09F5F9093E40102C0B9
:100440002FEF3FEFC90108958091E30190E02091E3
:10045000E401821B91090895CF92DF92EF92FF92FF
:100460000F931F93CF93DF937C01262F972F8A0141
:1004700080914D01882391F0C62FD72F6E01C40EB5
:10048000D51ECC15DD0571F06991D701ED91FC9178
:100490000190F081E02DC7010995F3CF642F822FE1
:1004A0000E94D801C801DF91CF911F910F91FF9059
:1004B000EF90DF90CF900895CF93DF931F92CDB749
:1004C000DEB7698320914D012223D1F02091E10113
:1004D000203240F021E030E0FC013383228380E0D1
:1004E00090E015C08091E201E82FF0E0E35DFE4F5F
:1004F000998190838F5F8093E2018093E10105C031
:1005000061E0CE0101960E94D80181E090E00F9059
:10051000DF91CF910895089580E090E008950097CD
:1005200069F0FC0101900020E9F73197AF01481B09
:10053000590BBC0185EE91E00C94C80080E090E07E
:1005400008958F929F92AF92BF920F931F93CF9374
:10055000DF93CDB7DEB7A1970FB6F894DEBF0FBE1D
:10056000CDBF19A2423008F44AE08E010F5D1F4F43
:10057000842E912CA12CB12CA50194010E9462081B
:10058000E62FB901CA0101501109EA3014F4E05D07
:1005900001C0E95CD801EC93232B242B252B61F7B8
:1005A000C8010E948F02A1960FB6F894DEBF0FBE5D
:1005B000CDBFDF91CF911F910F91BF90AF909F90D2
:1005C0008F900895CF92DF92EF92FF92CF93DF93B7
:1005D0006B017C01E091E501F091E6010190F08171
:1005E000E02D6DE285EE91E00995EC016627772715
:1005F000CB016C197D098E099F094AE00E94A10276
:100600008C0F9D1FDF91CF91FF90EF90DF90CF90E7
:100610000895BC01990F880B990B97FD0C94E20289
:100620004AE00C94A102EF92FF920F931F93CF9395
:10063000DF9381E080934D0188E680932C01109236
:10064000E2011092E10160E082E892E00E945C0227
:100650008091E101813208F045C09091E001911153
:10066000FCCF92E09093E00191E09093DF019FEF47
:100670009093B5011092D7018093D601ADE2B1E01D
:1006800026EB31E0F9019E2F921B981718F49D91EB
:100690009193F9CF1092D8018091D801806D809309
:1006A000D8018091DE01813061F41092DE018091E9
:1006B000D8018093BB008091BC0083FDF8CF85EC0E
:1006C00001C085EE8093BC008091E0018230E1F3AF
:1006D0008091B5018F3F31F08091B501803211F0EA
:1006E0008091B5011092E2011092E10110924D014A
:1006F0008091E0018111FCCF81E08093E001809343
:10070000DF019FEF9093B5011092D70196E090938F
:10071000D6018093D8018091D801806D8093D80153
:100720008091DE01813061F41092DE018091D80168
:100730008093BB008091BC0083FDF8CF85EC01C0A5
:1007400085EE8093BC008091E0018130E1F38091DF
:10075000D701873018F48091D70101C087E0A6EB5C
:10076000B1E02EE431E0F9019E2F921B981718F4A6
:100770009D919193F9CF1092E4018093E30182E877
:1007800092E00E941002C82F82E892E00E941002BC
:10079000D82F82E892E00E941002182F82E892E09F
:1007A0000E94100282E892E00E941002F82E82E875
:1007B00092E00E941002E82E82E892E00E9410026D
:1007C000082F8C2F82958F706C2F6F70C62F2AE0A8
:1007D000829FC00D11248E2D82958F709E2D9F704B
:1007E0002AE0829F900D1124892F90E00E94090336
:1007F00084E291E00E948F028F2D82958F709F2D51
:100800009F702AE0829F900D1124892F90E00E9412
:10081000090384E291E00E948F02802F82958F70FD
:100820000F709AE0899F000D1124802F90E00E94A4
:10083000090384E291E00E948F02812F86958695BC
:1008400086958670982F990F990F890F1F70810FC9
:1008500090E00E94090384E291E00E948F028D2FB4
:1008600082958F70DF702AE0829FD00D11248D2F2A
:1008700090E00E94090386E291E00E948F026C2FB3
:1008800070E080E090E04AE00E94A10288E291E0FE
:10089000DF91CF911F910F91FF90EF900C948F02F9
:1008A0000E948A081F920F920FB60F9211242F9365
:1008B0003F934F935F936F937F938F939F93AF93E8
:1008C000BF93EF93FF9385EE91E00E943A01FF9171
:1008D000EF91BF91AF919F918F917F916F915F91B8
:1008E0004F913F912F910F900FBE0F901F90189531
:1008F0001F920F920FB60F9211242F938F939F93F5
:10090000EF93FF93E091F501F091F6018081E09182
:10091000FB01F091FC0182FD12C090818091FE01EB
:100920008F5F8F732091FF01821751F0E091FE01DC
:10093000F0E0EB51FE4F958F8093FE0101C0808166
:10094000FF91EF919F918F912F910F900FBE0F907C
:100950001F9018951F920F920FB60F9211242F938C
:100960003F938F939F93AF93BF9380918E0290910B
:100970008F02A0919002B09191023091DD0126E0AA
:10098000230F2D3720F40296A11DB11D05C029E8C3
:10099000230F0396A11DB11D2093DD0180938E02CC
:1009A00090938F02A0939002B09391028091D9010D
:1009B0009091DA01A091DB01B091DC010196A11DBB
:1009C000B11D8093D9019093DA01A093DB01B0931C
:1009D000DC01BF91AF919F918F913F912F910F902B
:1009E0000FBE0F901F9018951F920F920FB60F9287
:1009F00011242F933F934F935F936F937F938F9324
:100A00009F93AF93BF93EF93FF938091B900887F3B
:100A1000803609F49CC068F5883209F45BC090F414
:100A2000803109F454C038F4882309F4F6C08830C2
:100A300009F44DC0F6C0883109F44CC0803209F485
:100A40005DC0EFC0803409F468C048F4803309F415
:100A500055C0883309F0E5C08093B501D8C0803512
:100A600009F44FC0883509F45DC0883409F0D9C055
:100A7000D6C0883909F4C7C0A8F4883709F467C01C
:100A800038F4883609F463C0803709F460C0C9C0FF
:100A9000883809F4B8C0803909F45FC0803809F09B
:100AA000C0C05BC0803B09F486C038F4803A09F4CA
:100AB00066C0883A09F47FC0B4C0803C09F4A7C07E
:100AC000883C09F4A4C0883B09F48AC0AAC080917C
:100AD000D80110C09091D7018091D601981770F578
:100AE000E091D70181E08E0F8093D701F0E0EA54C6
:100AF000FE4F80818093BB0085EC86C08093B5015A
:100B00008EC0E091D70181E08E0F8093D701809154
:100B1000BB00F0E0EA54FE4F80839091D7018091B2
:100B2000D6016EC0E091D70181E08E0F8093D7018E
:100B30008091BB00F0E0EA54FE4F80838091DF019A
:100B400081116DC081E08093DE0184EA61C083E0A1
:100B50008093E0011092B401CFCF8091B401803234
:100B600008F051C0E091B40181E08E0F8093B40190
:100B70008091BB00F0E0EC56FE4F8083BDCF85EC4A
:100B80008093BC001092E0018091B401803230F477
:100B9000E091B401F0E0EC56FE4F10826091B40198
:100BA00070E0E0919201F091930184E991E0099560
:100BB0001092B40136C084E08093E001109291015C
:100BC00010929001E0918E01F0918F010995809132
:100BD0009001811105C081E08093900110926E0117
:100BE000E091910181E08E0F80939101F0E0E25954
:100BF000FE4F80818093BB00909191018091900184
:100C0000981708F479CF85E88093BC000AC085EC7A
:100C10008093BC001092E00104C01092B5010E94C4
:100C2000CE01FF91EF91BF91AF919F918F917F91F5
:100C30006F915F914F913F912F910F900FBE0F9049
:100C40001F901895E5EEF1E01382128288EE93E092
:100C5000A0E0B0E084839583A683B78324E031E0ED
:100C60003183208325EC30E03587248724EC30E085
:100C70003787268720EC30E0318B208B21EC30E069
:100C8000338B228B22EC30E0358B248B26EC30E04A
:100C9000378B268B118E128E138E148EE2E8F2E0C3
:100CA0001382128284839583A683B78326E131E081
:100CB00031832083E7EBF2E01182108213821282EB
:100CC00015821482E2E9F2E020812E7F20832081C8
:100CD0002D7F208311861286138614861582168234
:100CE00017821086118212821382148210A2178E2C
:100CF00012A211A214A213A2158A168A178A108EA4
:100D000081839283A383B48381819281A381B481FF
:100D100085839683A783B0872FB7F89480918E023E
:100D200090918F02A0919002B09191022FBF818784
:100D30009287A387B4878FEF9FEFDC018587968723
:100D4000A787B08B818B928BA38BB48B83E193E0CD
:100D5000928F818F148E138E168E158E089578942F
:100D600084B5826084BD84B5816084BD85B58260B0
:100D700085BD85B5816085BD80916E008160809361
:100D80006E001092810080918100826080938100CA
:100D900080918100816080938100809180008160DA
:100DA000809380008091B10084608093B100809135
:100DB000B00081608093B00080917A00846080935D
:100DC0007A0080917A00826080937A0080917A0024
:100DD0008E7F80937A0080917A00806880937A0079
:100DE0001092C1001092E4011092E3011092E2010E
:100DF0001092E1011092E00181E08093DF011092F6
:100E0000DE0182E10E94820083E10E9482008091E3
:100E1000B9008E7F8093B9008091B9008D7F809357
:100E2000B90080E28093B80085E48093BC00E09133
:100E3000F501F091F60182E08083E091F101F091FB
:100E4000F2011082E091F301F091F40187E68083D2
:100E50001092FD01E091F901F091FA0186E08083A2
:100E6000E091F701F091F801808180618083E09149
:100E7000F701F091F801808188608083E091F701AB
:100E8000F091F801808180688083E091F701F09112
:100E9000F80180818F7D80831092BC021092BB028A
:100EA00022E932E087EB92E09093B6028093B5029C
:100EB0003093B8022093B7021092B2021092B1029E
:100EC0001092B4021092B3023093BA022093B90286
:100ED0001092A7021092A8021092A9021092AA02E0
:100EE000E091AD02F091AE02309709F4E5C0809137
:100EF000920281FDE1C03093BC022093BB0280913D
:100F0000920282608093920209959091920280FBF6
:100F100090F990939202809192028D7F8093920239
:100F2000E091B502F091B602158214822FB7F894C1
:100F300080918E0290918F02A0919002B0919102C7
:100F40002FBF40919302509194026091950270914D
:100F5000960240939702509398026093990270937F
:100F60009A02841B950BA60BB70B80939B02909360
:100F70009C02A0939D02B0939E028091B702909133
:100F8000B8029093BC028093BB02C091BB02D09187
:100F9000BC02209709F48DC0888180FF83C08D85B5
:100FA0009E85AF85B889892B8A2B8B2BF1F498818C
:100FB00088818E7F888388818D7F888390FF72C02F
:100FC000ED8DFE8D309709F46DC0ABA1BCA11496D8
:100FD0000D911C9115971596DC93CE931497099556
:100FE000EBA1FCA1158304835DC02FB7F894809119
:100FF0008E0290918F02A0919002B09191022FBF2A
:10100000E091BB02F091BC02418152816381748105
:10101000C184D284E384F4840581168127813085DC
:101020008C199D09AE09BF0980179107A207B30764
:10103000C8F185859685A785B089181619061A0600
:101040001B065CF485859685A785B0890197A10963
:10105000B10985879687A787B08B85899689A789E7
:10106000B08D0196A11DB11D858B968BA78BB08F7E
:1010700085819681A781B085018512852385348578
:10108000800F911FA21FB31F81879287A387B48708
:101090004583568367837087018CF28DE02D3097EE
:1010A00009F00995E091BB02F091BC0281A192A1E7
:1010B00068CF0E94C40161CF8091920281608093C9
:1010C000920234CFA1E21A2EAA1BBB1BFD010DC058
:1010D000AA1FBB1FEE1FFF1FA217B307E407F507E8
:1010E00020F0A21BB30BE40BF50B661F771F881FC4
:1010F000991F1A9469F760957095809590959B015A
:10110000AC01BD01CF010895EE0FFF1F0590F491D2
:10111000E02D099481E090E0F8940C948F08F89405
:02112000FFCFFF
:10112200000000005B01C800F300A20124010201DB
:101132001601000000005C022C028C020002240254
:0C114200100201027C003A000D0A0000BF
:00000001FF
