:100000000C9458000C9480000C9480000C94800098
:100010000C9480000C9480000C9480000C94800060
:100020000C9480000C9480000C9480000C94800050
:100030000C9480000C9480000C9480000C94800040
:100040000C94EF030C9480000C94BD030C94970364
:100050000C9480000C9480000C9480000C94800020
:100060000C9439040C948000000000002500280046
:100070002B00040404040404040402020202020229
:10008000030303030303010204081020408001025C
:1000900004081020010204081020000000080002DB
:1000A00001000003040700000000000000006705D5
:1000B00011241FBECFEFD8E0DEBFCDBF11E0A0E01E
:1000C000B1E0EEE6FFE002C005900D92AC32B10760
:1000D000D9F722E0ACE2B1E001C01D92A239B2072B
:1000E000E1F710E0C8E5D0E004C02197FE010E94CE
:1000F000AA07C735D107C9F70E94A0050C94B50718
:100100000C9400002091E8019091E701213208F061
:100110004AC08091C4018111FCCF32E03093C40108
:1001200031E03093C3013FEF3093C2011092C1011F
:100130002093C001A7ECB1E040EA51E0FA013E2F64
:10014000341B321718F43D913193F9CF10929F016F
:1001500020919F01990F922B90939F0190919E0166
:10016000913061F410929E0190919F019093BB0099
:100170009091BC0093FDF8CF95EC01C095EE909363
:10018000BC009091C4019230E1F39091C2019F3F75
:1001900079F08091C201803241F08091C2018033B8
:1001A00031F084E005C081E003C082E001C083E05B
:1001B0001092C6011092E8011092C501089590E0D6
:1001C000FC01E656FF4F2491FC01EA57FF4F3491A2
:1001D000FC01EE58FF4FE491EE23B1F1222339F1F7
:1001E000233091F038F42130A9F0223001F584B5A4
:1001F0008F7D12C0273091F02830A1F02430B9F45F
:10020000809180008F7D03C0809180008F778093E4
:1002100080000DC084B58F7784BD09C08091B00087
:100220008F7703C08091B0008F7D8093B000F0E0A5
:10023000EE0FFF1FE859FF4FA591B4918FB7F894C7
:10024000EC913E2B3C938FBF0895CF92DF92EF92BB
:10025000FF920F931F93CF93DF936C017A018B0171
:10026000C0E0D0E0CE15DF0589F0D8016D918D0199
:10027000D601ED91FC910190F081E02DC601099528
:10028000892B11F47E0102C02196ECCFC701DF91CA
:10029000CF911F910F91FF90EF90DF90CF90089535
:1002A000FC01538D448D252F30E0842F90E0821B7C
:1002B000930B541710F0CF96089501970895FC0101
:1002C000918D828D981761F0828DDF01A80FB11D8D
:1002D0005D968C91928D9F5F9F73928F90E00895B1
:1002E0008FEF9FEF0895FC01918D828D981731F06B
:1002F000828DE80FF11D858D90E008958FEF9FEFBF
:100300000895FC01918D228D892F90E0805C9F4F94
:10031000821B91098F739927089589EE91E00E94BD
:10032000810121E0892B09F420E0822F0895FC014E
:10033000848DDF01A80FB11DA35ABF4F2C91848D6E
:1003400090E001968F739927848FA689B7892C93A3
:10035000A089B1898C9180648C93938D848D98133E
:1003600006C00288F389E02D80818F7D8083089507
:10037000EF92FF920F931F93CF93DF93EC0181E0F5
:10038000888F9B8D8C8D981305C0E889F9898081B1
:1003900085FD24C0F62E0B8D10E00F5F1F4F0F73ED
:1003A0001127E02E8C8DE8120CC00FB607FCFACF97
:1003B000E889F989808185FFF5CFCE010E949701F8
:1003C000F1CF8B8DFE01E80FF11DE35AFF4FF08254
:1003D0000B8FEA89FB898081806207C0EE89FF89E3
:1003E0006083E889F98980818064808381E090E07E
:1003F000DF91CF911F910F91FF90EF900895CF93D0
:10040000DF93EC01888D8823C9F0EA89FB8980811C
:1004100085FD05C0A889B9898C9186FD0FC00FB6EE
:1004200007FCF5CF808185FFF2CFA889B9898C912F
:1004300085FFEDCFCE010E949701E7CFDF91CF91ED
:10044000089580E090E0892B29F00E948D018111B0
:100450000C94000008953FB7F89480917801909132
:100460007901A0917A01B0917B0126B5A89B05C0C6
:100470002F3F19F00196A11DB11D3FBFBA2FA92F23
:10048000982F8827820F911DA11DB11DBC01CD01A0
:1004900043E0660F771F881F991F4A95D1F708958B
:1004A00085ED8093BC008091BC0084FDFCCF109250
:1004B000C401089540914E01262F30E0240F311DD4
:1004C00021323105DCF42091C4012430C9F4FC014F
:1004D00080E090E0861758F430914E012191DC01C4
:1004E000A45DBE4FA30FB11D2C930196F3CF809155
:1004F0004E01680F60934E0180E0089581E00895F9
:1005000082E008950895E0917D0180917C01E817D3
:1005100030F4F0E0E258FE4F808190E008958FEFD4
:100520009FEF089590917D0180917C01981750F480
:10053000E92FF0E0E258FE4F208130E09F5F90937A
:100540007D0102C02FEF3FEFC901089580917C012A
:1005500090E020917D01821B91090895CF92DF9256
:10056000EF92FF920F931F93CF93DF937C01262F7F
:10057000972F8A018091C501882391F0C62FD72F2C
:100580006E01C40ED51ECC15DD0571F06991D70141
:10059000ED91FC910190F081E02DC7010995F3CF19
:1005A000642F822F0E945A02C801DF91CF911F91C0
:1005B0000F91FF90EF90DF90CF900895CF93DF934E
:1005C0001F92CDB7DEB769832091C5012223D1F0F8
:1005D0002091E801203240F021E030E0FC0133833B
:1005E000228380E090E015C08091C601E82FF0E002
:1005F000E953FE4F998190838F5F8093C60180936A
:10060000E80105C061E0CE0101960E945A0281E036
:1006100090E00F90DF91CF910895089580E090E0F1
:100620000895009769F0FC0101900020E9F73197E7
:10063000AF01481B590BBC0189EE91E00C942501D8
:1006400080E090E008958F929F92AF92BF920F93B7
:100650001F93CF93DF93CDB7DEB7A1970FB6F89472
:10066000DEBF0FBECDBF19A2423008F44AE08E01B2
:100670000F5D1F4F842E912CA12CB12CA50194014C
:100680000E948807E62FB901CA0101501109EA301A
:1006900014F4E05D01C0E95CD801EC93232B242B1A
:1006A000252B61F7C8010E941103A1960FB6F8949B
:1006B000DEBF0FBECDBFDF91CF911F910F91BF90D5
:1006C000AF909F908F900895CF92DF92EF92FF921C
:1006D000CF93DF936B017C01E091E901F091EA0196
:1006E0000190F081E02D6DE289EE91E00995EC0139
:1006F00066277727CB016C197D098E099F094AE08F
:100700000E9423038C0F9D1FDF91CF91FF90EF90EC
:10071000DF90CF900895BC01990F880B990B97FD3E
:100720000C9464034AE00C9423030E94B0071F92C8
:100730000F920FB60F9211242F933F934F935F9315
:100740006F937F938F939F93AF93BF93EF93FF9399
:1007500089EE91E00E949701FF91EF91BF91AF91D7
:100760009F918F917F916F915F914F913F912F91C9
:100770000F900FBE0F901F9018951F920F920FB6FB
:100780000F9211242F938F939F93EF93FF93E091F8
:10079000F901F091FA018081E091FF01F0910002EE
:1007A00082FD12C09081809102028F5F8F73209131
:1007B0000302821751F0E0910202F0E0E751FE4F90
:1007C000958F8093020201C08081FF91EF919F91EC
:1007D0008F912F910F900FBE0F901F9018951F9221
:1007E0000F920FB60F9211242F933F938F939F93E5
:1007F000AF93BF938091740190917501A0917601A0
:10080000B09177013091730126E0230F2D3720F44A
:100810000296A11DB11D05C029E8230F0396A11D55
:10082000B11D209373018093740190937501A0937F
:100830007601B09377018091780190917901A09130
:100840007A01B0917B010196A11DB11D80937801C1
:1008500090937901A0937A01B0937B01BF91AF91FE
:100860009F918F913F912F910F900FBE0F901F90EE
:1008700018951F920F920FB60F9211242F933F934A
:100880004F935F936F937F938F939F93AF93BF9398
:10089000EF93FF938091B900887F803609F49CC064
:1008A00068F5883209F45BC090F4803109F454C0D3
:1008B00038F4882309F4F6C0883009F44DC0F6C036
:1008C000883109F44CC0803209F45DC0EFC0803437
:1008D00009F468C048F4803309F455C0883309F03E
:1008E000E5C08093C201D8C0803509F44FC0883577
:1008F00009F45DC0883409F0D9C0D6C0883909F43C
:10090000C7C0A8F4883709F467C038F4883609F4FA
:1009100063C0803709F460C0C9C0883809F4B8C022
:10092000803909F45FC0803809F0C0C05BC0803BEB
:1009300009F486C038F4803A09F466C0883A09F4AC
:100940007FC0B4C0803C09F4A7C0883C09F4A4C0AF
:10095000883B09F48AC0AAC080919F0110C0909181
:10096000C1018091C001981770F5E091C10181E04B
:100970008E0F8093C101F0E0E056FE4F808180939E
:10098000BB0085EC86C08093C2018EC0E091C1019E
:1009900081E08E0F8093C1018091BB00F0E0E056B2
:1009A000FE4F80839091C1018091C0016EC0E091A3
:1009B000C10181E08E0F8093C1018091BB00F0E006
:1009C000E056FE4F80838091C30181116DC081E0AC
:1009D00080939E0184EA61C083E08093C4011092F9
:1009E0007201CFCF80917201803208F051C0E09146
:1009F000720181E08E0F809372018091BB00F0E064
:100A0000EE5AFE4F8083BDCF85EC8093BC001092E0
:100A1000C40180917201803230F4E0917201F0E003
:100A2000EE5AFE4F10826091720170E0E091500129
:100A3000F091510182E591E009951092720136C062
:100A400084E08093C40110924F0110924E01E09116
:100A50004C01F0914D01099580914E01811105C025
:100A600081E080934E0110922C01E0914F0181E0D2
:100A70008E0F80934F01F0E0E45DFE4F8081809304
:100A8000BB0090914F0180914E01981708F479CFE7
:100A900085E88093BC000AC085EC8093BC0010926E
:100AA000C40104C01092C2010E945002FF91EF9154
:100AB000BF91AF919F918F917F916F915F914F9176
:100AC0003F912F910F900FBE0F901F901895E9EE58
:100AD000F1E01382128288EE93E0A0E0B0E084831C
:100AE0009583A683B78324E031E03183208325EC0E
:100AF00030E03587248724EC30E03787268720ECE8
:100B000030E0318B208B21EC30E0338B228B22ECD8
:100B100030E0358B248B26EC30E0378B268B118E22
:100B2000128E138E148EE6E8F2E013821282848312
:100B30009583A683B78386E191E0918380830895AE
:100B4000789484B5826084BD84B5816084BD85B5A8
:100B5000826085BD85B5816085BD80916E008160B4
:100B600080936E001092810080918100826080935A
:100B7000810080918100816080938100809180005C
:100B80008160809380008091B10084608093B10087
:100B90008091B00081608093B00080917A00846081
:100BA00080937A0080917A00826080937A008091AD
:100BB0007A008E7F80937A0080917A00806880939B
:100BC0007A001092C10010927D0110927C01109267
:100BD000C6011092E8011092C401C1E0C093C301A4
:100BE00010929E0182E10E94DF0083E10E94DF00FB
:100BF0008091B9008E7F8093B9008091B9008D7F7C
:100C00008093B90080E28093B80085E48093BC00B3
:100C1000E091F901F091FA0182E08083E091F50121
:100C2000F091F6011082E091F701F091F80187E66A
:100C3000808310920102E091FD01F091FE0186E0B7
:100C40008083E091FB01F091FC01808180618083D1
:100C5000E091FB01F091FC01808188608083E0914C
:100C6000FB01F091FC01808180688083E091FB01B1
:100C7000F091FC0180818F7D8083C093C50188E65F
:100C80008093E7011092C6011092E80160E086E8C7
:100C900092E00E94DE0265E486E892E00E94DE02B5
:100CA00060E486E892E00E94DE0260E086E892E07E
:100CB0000E94DE0262E086E892E00E94DE0261E0CD
:100CC00086E892E00E94DE0263E086E892E00E94FD
:100CD000DE0261E186E892E00E94DE0260E086E8E2
:100CE00092E00E94DE020E948200DD24D39498E606
:100CF000C92E33243A9426E0222E3EE7E32E31E03B
:100D0000F32ED092C501C092E7011092C601109255
:100D1000E80160E086E892E00E94DE020E94820024
:100D20008091C4018111FCCFD092C401D092C30143
:100D30003092C2011092C1012092C001D0929F0155
:100D400080919F01806D80939F0180919E018130F1
:100D500071F410929E0180919F018093BB0080915D
:100D6000BC0083FDF8CF25EC2093BC0003C085EECA
:100D70008093BC008091C4018130E1F38091C10176
:100D8000873018F48091C10101C087E0A0EAB1E08A
:100D9000EEE7F1E09E2F9E19981718F49D9191931C
:100DA000F9CF10927D0180937C0186E892E00E9449
:100DB0009202982F92959F708F70C82F2AE0929F71
:100DC000C00D112486E892E00E949202D82F86E896
:100DD00092E00E949202182F86E892E00E9492020E
:100DE00086E892E00E949202782E86E892E00E94C5
:100DF0009202682E86E892E00E949202082F862DC9
:100E000082958F70962D9F702AE0829F900D1124FD
:100E1000892F90E00E948B0384E291E00E941103ED
:100E2000872D82958F70972D9F702AE0829F900D5D
:100E30001124892F90E00E948B0384E291E00E94AC
:100E40001103802F82958F700F709AE0899F000D9B
:100E50001124802F90E00E948B0384E291E00E9495
:100E60001103812F8695869586958670982F990F08
:100E7000990F890F1F70810F90E00E948B0384E20D
:100E800091E00E9411038D2F82958F70DF702AE010
:100E9000829FD00D11248D2F90E00E948B0386E25B
:100EA00091E00E9411036C2F70E080E090E04AE036
:100EB0000E94230388E291E00E9411030E942B020A
:100EC0004B015C0188EE482E83E0582E612C712C7A
:100ED0000E942B02DC01CB0188199909AA09BB09E0
:100EE000883E9340A105B10558F081E0481A5108A9
:100EF0006108710898EE890E93E0991EA11CB11C3F
:100F0000411451046104710419F70E942102F9CEC1
:100F1000A1E21A2EAA1BBB1BFD010DC0AA1FBB1FFD
:100F2000EE1FFF1FA217B307E407F50720F0A21B6F
:100F3000B30BE40BF50B661F771F881F991F1A94DC
:100F400069F760957095809590959B01AC01BD0106
:100F5000CF010895EE0FFF1F0590F491E02D099445
:0E0F600081E090E0F8940C94B507F894FFCF70
:100F6E0000000000B80125015001FF0181015F0161
:100F7E00730100000000DE02AE020E038202A60222
:0C0F8E00920283027C003A000D0A000071
:00000001FF
